{
  "contractName": "Payroll",
  "abi": [
    {
      "constant": true,
      "inputs": [],
      "name": "owner",
      "outputs": [
        {
          "name": "",
          "type": "address"
        }
      ],
      "payable": false,
      "stateMutability": "view",
      "type": "function"
    },
    {
      "constant": true,
      "inputs": [
        {
          "name": "",
          "type": "address"
        }
      ],
      "name": "employees",
      "outputs": [
        {
          "name": "id",
          "type": "address"
        },
        {
          "name": "salary",
          "type": "uint256"
        },
        {
          "name": "lastPayDay",
          "type": "uint256"
        }
      ],
      "payable": false,
      "stateMutability": "view",
      "type": "function"
    },
    {
      "constant": false,
      "inputs": [
        {
          "name": "newOwner",
          "type": "address"
        }
      ],
      "name": "transferOwnership",
      "outputs": [],
      "payable": false,
      "stateMutability": "nonpayable",
      "type": "function"
    },
    {
      "anonymous": false,
      "inputs": [
        {
          "indexed": true,
          "name": "previousOwner",
          "type": "address"
        },
        {
          "indexed": true,
          "name": "newOwner",
          "type": "address"
        }
      ],
      "name": "OwnershipTransferred",
      "type": "event"
    },
    {
      "constant": false,
      "inputs": [
        {
          "name": "employeeId",
          "type": "address"
        },
        {
          "name": "salary",
          "type": "uint256"
        }
      ],
      "name": "addEmployee",
      "outputs": [],
      "payable": false,
      "stateMutability": "nonpayable",
      "type": "function"
    },
    {
      "constant": false,
      "inputs": [
        {
          "name": "employeeId",
          "type": "address"
        }
      ],
      "name": "removeEmployee",
      "outputs": [],
      "payable": false,
      "stateMutability": "nonpayable",
      "type": "function"
    },
    {
      "constant": false,
      "inputs": [
        {
          "name": "employeeId",
          "type": "address"
        },
        {
          "name": "salary",
          "type": "uint256"
        }
      ],
      "name": "updateSalary",
      "outputs": [],
      "payable": false,
      "stateMutability": "nonpayable",
      "type": "function"
    },
    {
      "constant": false,
      "inputs": [
        {
          "name": "employeeId",
          "type": "address"
        }
      ],
      "name": "changePaymentAddress",
      "outputs": [],
      "payable": false,
      "stateMutability": "nonpayable",
      "type": "function"
    },
    {
      "constant": false,
      "inputs": [],
      "name": "getPaid",
      "outputs": [],
      "payable": false,
      "stateMutability": "nonpayable",
      "type": "function"
    },
    {
      "constant": false,
      "inputs": [],
      "name": "addFund",
      "outputs": [
        {
          "name": "",
          "type": "uint256"
        }
      ],
      "payable": true,
      "stateMutability": "payable",
      "type": "function"
    },
    {
      "constant": false,
      "inputs": [],
      "name": "calculateRunway",
      "outputs": [
        {
          "name": "",
          "type": "uint256"
        }
      ],
      "payable": false,
      "stateMutability": "nonpayable",
      "type": "function"
    },
    {
      "constant": false,
      "inputs": [],
      "name": "hasEnoughFund",
      "outputs": [
        {
          "name": "",
          "type": "bool"
        }
      ],
      "payable": false,
      "stateMutability": "nonpayable",
      "type": "function"
    }
  ],
  "bytecode": "0x6060604052336000806101000a81548173ffffffffffffffffffffffffffffffffffffffff021916908373ffffffffffffffffffffffffffffffffffffffff160217905550611170806100536000396000f3006060604052600436106100af576000357c0100000000000000000000000000000000000000000000000000000000900463ffffffff16806322003f10146100b457806323fed09e146100f65780634ec19512146101235780637124d6131461014c5780638da5cb5b14610185578063a2f09dfa146101da578063cf41d6f8146101f8578063d06789471461020d578063d108177a14610294578063e7fd9a13146102cd578063f2fde38b1461030f575b600080fd5b34156100bf57600080fd5b6100f4600480803573ffffffffffffffffffffffffffffffffffffffff16906020019091908035906020019091905050610348565b005b341561010157600080fd5b610109610569565b604051808215151515815260200191505060405180910390f35b341561012e57600080fd5b61013661057c565b6040518082815260200191505060405180910390f35b341561015757600080fd5b610183600480803573ffffffffffffffffffffffffffffffffffffffff169060200190919050506105af565b005b341561019057600080fd5b61019861085f565b604051808273ffffffffffffffffffffffffffffffffffffffff1673ffffffffffffffffffffffffffffffffffffffff16815260200191505060405180910390f35b6101e2610884565b6040518082815260200191505060405180910390f35b341561020357600080fd5b61020b6108a3565b005b341561021857600080fd5b610244600480803573ffffffffffffffffffffffffffffffffffffffff16906020019091905050610a0e565b604051808473ffffffffffffffffffffffffffffffffffffffff1673ffffffffffffffffffffffffffffffffffffffff168152602001838152602001828152602001935050505060405180910390f35b341561029f57600080fd5b6102cb600480803573ffffffffffffffffffffffffffffffffffffffff16906020019091905050610a58565b005b34156102d857600080fd5b61030d600480803573ffffffffffffffffffffffffffffffffffffffff16906020019091908035906020019091905050610c9e565b005b341561031a57600080fd5b610346600480803573ffffffffffffffffffffffffffffffffffffffff16906020019091905050610ed6565b005b6000806000809054906101000a900473ffffffffffffffffffffffffffffffffffffffff1673ffffffffffffffffffffffffffffffffffffffff163373ffffffffffffffffffffffffffffffffffffffff161415156103a657600080fd5b836000600260008373ffffffffffffffffffffffffffffffffffffffff1673ffffffffffffffffffffffffffffffffffffffff168152602001908152602001600020905060008160000160009054906101000a900473ffffffffffffffffffffffffffffffffffffffff1673ffffffffffffffffffffffffffffffffffffffff161415151561043157fe5b600260008773ffffffffffffffffffffffffffffffffffffffff1673ffffffffffffffffffffffffffffffffffffffff168152602001908152602001600020935061048d670de0b6b3a76400008661102b90919063ffffffff16565b92508360010154831415151561049f57fe5b61051e84606060405190810160405290816000820160009054906101000a900473ffffffffffffffffffffffffffffffffffffffff1673ffffffffffffffffffffffffffffffffffffffff1673ffffffffffffffffffffffffffffffffffffffff16815260200160018201548152602001600282015481525050611066565b6105498361053b86600101546001546110f290919063ffffffff16565b61110b90919063ffffffff16565b600181905550828460010181905550428460020181905550505050505050565b6000600161057561057c565b1015905090565b60006105aa6001543073ffffffffffffffffffffffffffffffffffffffff163161112990919063ffffffff16565b905090565b6000336000600260008373ffffffffffffffffffffffffffffffffffffffff1673ffffffffffffffffffffffffffffffffffffffff168152602001908152602001600020905060008160000160009054906101000a900473ffffffffffffffffffffffffffffffffffffffff1673ffffffffffffffffffffffffffffffffffffffff161415151561063c57fe5b836000600260008373ffffffffffffffffffffffffffffffffffffffff1673ffffffffffffffffffffffffffffffffffffffff168152602001908152602001600020905060008160000160009054906101000a900473ffffffffffffffffffffffffffffffffffffffff1673ffffffffffffffffffffffffffffffffffffffff161415156106c657fe5b600260003373ffffffffffffffffffffffffffffffffffffffff1673ffffffffffffffffffffffffffffffffffffffff16815260200190815260200160002094506060604051908101604052808773ffffffffffffffffffffffffffffffffffffffff168152602001866001015481526020018660020154815250600260008873ffffffffffffffffffffffffffffffffffffffff1673ffffffffffffffffffffffffffffffffffffffff16815260200190815260200160002060008201518160000160006101000a81548173ffffffffffffffffffffffffffffffffffffffff021916908373ffffffffffffffffffffffffffffffffffffffff1602179055506020820151816001015560408201518160020155905050600260003373ffffffffffffffffffffffffffffffffffffffff1673ffffffffffffffffffffffffffffffffffffffff168152602001908152602001600020600080820160006101000a81549073ffffffffffffffffffffffffffffffffffffffff0219169055600182016000905560028201600090555050505050505050565b6000809054906101000a900473ffffffffffffffffffffffffffffffffffffffff1681565b60003073ffffffffffffffffffffffffffffffffffffffff1631905090565b600080336000600260008373ffffffffffffffffffffffffffffffffffffffff1673ffffffffffffffffffffffffffffffffffffffff168152602001908152602001600020905060008160000160009054906101000a900473ffffffffffffffffffffffffffffffffffffffff1673ffffffffffffffffffffffffffffffffffffffff161415151561093157fe5b600260003373ffffffffffffffffffffffffffffffffffffffff1673ffffffffffffffffffffffffffffffffffffffff168152602001908152602001600020935061098a6014856002015461110b90919063ffffffff16565b9250428310151561099757fe5b8284600201819055508360000160009054906101000a900473ffffffffffffffffffffffffffffffffffffffff1673ffffffffffffffffffffffffffffffffffffffff166108fc85600101549081150290604051600060405180830381858888f193505050501515610a0857600080fd5b50505050565b60026020528060005260406000206000915090508060000160009054906101000a900473ffffffffffffffffffffffffffffffffffffffff16908060010154908060020154905083565b60008060009054906101000a900473ffffffffffffffffffffffffffffffffffffffff1673ffffffffffffffffffffffffffffffffffffffff163373ffffffffffffffffffffffffffffffffffffffff16141515610ab557600080fd5b816000600260008373ffffffffffffffffffffffffffffffffffffffff1673ffffffffffffffffffffffffffffffffffffffff168152602001908152602001600020905060008160000160009054906101000a900473ffffffffffffffffffffffffffffffffffffffff1673ffffffffffffffffffffffffffffffffffffffff1614151515610b4057fe5b600260008573ffffffffffffffffffffffffffffffffffffffff1673ffffffffffffffffffffffffffffffffffffffff1681526020019081526020016000209250610c0083606060405190810160405290816000820160009054906101000a900473ffffffffffffffffffffffffffffffffffffffff1673ffffffffffffffffffffffffffffffffffffffff1673ffffffffffffffffffffffffffffffffffffffff16815260200160018201548152602001600282015481525050611066565b610c1983600101546001546110f290919063ffffffff16565b600181905550600260008573ffffffffffffffffffffffffffffffffffffffff1673ffffffffffffffffffffffffffffffffffffffff168152602001908152602001600020600080820160006101000a81549073ffffffffffffffffffffffffffffffffffffffff021916905560018201600090556002820160009055505050505050565b6000806000809054906101000a900473ffffffffffffffffffffffffffffffffffffffff1673ffffffffffffffffffffffffffffffffffffffff163373ffffffffffffffffffffffffffffffffffffffff16141515610cfc57600080fd5b836000600260008373ffffffffffffffffffffffffffffffffffffffff1673ffffffffffffffffffffffffffffffffffffffff168152602001908152602001600020905060008160000160009054906101000a900473ffffffffffffffffffffffffffffffffffffffff1673ffffffffffffffffffffffffffffffffffffffff16141515610d8657fe5b600260008773ffffffffffffffffffffffffffffffffffffffff1673ffffffffffffffffffffffffffffffffffffffff1681526020019081526020016000209350610de2670de0b6b3a76400008661102b90919063ffffffff16565b92506060604051908101604052808773ffffffffffffffffffffffffffffffffffffffff16815260200184815260200142815250600260008873ffffffffffffffffffffffffffffffffffffffff1673ffffffffffffffffffffffffffffffffffffffff16815260200190815260200160002060008201518160000160006101000a81548173ffffffffffffffffffffffffffffffffffffffff021916908373ffffffffffffffffffffffffffffffffffffffff1602179055506020820151816001015560408201518160020155905050610ec88360015461110b90919063ffffffff16565b600181905550505050505050565b6000809054906101000a900473ffffffffffffffffffffffffffffffffffffffff1673ffffffffffffffffffffffffffffffffffffffff163373ffffffffffffffffffffffffffffffffffffffff16141515610f3157600080fd5b600073ffffffffffffffffffffffffffffffffffffffff168173ffffffffffffffffffffffffffffffffffffffff1614151515610f6d57600080fd5b8073ffffffffffffffffffffffffffffffffffffffff166000809054906101000a900473ffffffffffffffffffffffffffffffffffffffff1673ffffffffffffffffffffffffffffffffffffffff167f8be0079c531659141344cd1fd0a4f28419497f9722a3daafe3b4186f6b6457e060405160405180910390a3806000806101000a81548173ffffffffffffffffffffffffffffffffffffffff021916908373ffffffffffffffffffffffffffffffffffffffff16021790555050565b6000806000841415611040576000915061105f565b828402905082848281151561105157fe5b0414151561105b57fe5b8091505b5092915050565b60006110a8601461109a6110878560400151426110f290919063ffffffff16565b856020015161102b90919063ffffffff16565b61112990919063ffffffff16565b9050816000015173ffffffffffffffffffffffffffffffffffffffff166108fc829081150290604051600060405180830381858888f1935050505015156110ee57600080fd5b5050565b600082821115151561110057fe5b818303905092915050565b600080828401905083811015151561111f57fe5b8091505092915050565b600080828481151561113757fe5b04905080915050929150505600a165627a7a723058201dccc0b826b23ff9e9be13a209d5786b8ca8928566d86b5d683ddbe2448904d50029",
  "source": "pragma solidity ^0.4.14;\nimport './Ownable.sol';\nimport './SafeMath.sol';\ncontract Payroll is Ownable {\n    struct Employee {\n        address id;\n        uint salary;\n        uint lastPayDay;\n    }\n    \n    using SafeMath for uint;\n    uint totalSalary;\n    mapping(address => Employee) public employees;\n    uint constant payDuration = 20 seconds;\n\n    modifier employeeExist(address employeeId) {\n        var employee = employees[employeeId];\n        assert(employee.id != 0x0);\n        _;\n    }\n\n    modifier employeeNotExist(address employeeId) {\n        var employee = employees[employeeId];\n        assert(employee.id == 0x0);\n        _;\n    }\n\n    function addEmployee(address employeeId, uint salary) onlyOwner employeeNotExist(employeeId) {\n        var employee = employees[employeeId];\n        uint s = salary.mul(1 ether);\n        employees[employeeId] = Employee({id: employeeId, salary: s, lastPayDay: now});\n        totalSalary = totalSalary.add(s);\n    }\n\n    function removeEmployee(address employeeId) onlyOwner employeeExist(employeeId) {\n       var employee = employees[employeeId];\n        _partialPaid(employee);\n        totalSalary = totalSalary.sub(employee.salary);\n        delete employees[employeeId];\n    }\n\n    function updateSalary(address employeeId, uint salary) onlyOwner employeeExist(employeeId) {\n        var employee   = employees[employeeId];\n        uint newSalary = salary.mul(1 ether);\n        assert(newSalary != employee.salary);\n\n        _partialPaid(employee);\n        totalSalary = totalSalary.sub(employee.salary).add(newSalary);\n        employee.salary = newSalary;\n        employee.lastPayDay = now;\n    }\n    function changePaymentAddress(address employeeId) employeeExist(msg.sender) employeeNotExist(employeeId) {\n        var employee = employees[msg.sender];\n        employees[employeeId] = Employee({id: employeeId, salary: employee.salary, lastPayDay: employee.lastPayDay});\n        delete employees[msg.sender];\n    }\n    function _partialPaid(Employee employee) private {\n        uint payment = employee.salary.mul(now.sub(employee.lastPayDay)).div(payDuration);\n        employee.id.transfer(payment);\n    }\n\n    function getPaid() employeeExist(msg.sender) {\n        var employee = employees[msg.sender];\n        uint nextPayDay = employee.lastPayDay.add(payDuration);\n        assert(nextPayDay < now);\n        employee.lastPayDay = nextPayDay;\n        employee.id.transfer(employee.salary);\n    }\n\n    function addFund() payable returns (uint) {\n        return this.balance;\n    }\n\n    function calculateRunway() returns (uint) {\n        return this.balance.div(totalSalary);\n    }\n\n    function hasEnoughFund() returns (bool) {\n        return calculateRunway() >= 1;\n    }\n}\n",
  "sourcePath": "/Users/yangxin.kyx/Documents/BlockChain/Team-K/Lesson-4/assignment/contracts/Payroll.sol",
  "compiler": {
    "name": "solc",
    "version": "0.4.19+commit.c4cbbb05.Emscripten.clang"
  },
  "schemaVersion": "2.0.0",
  "updatedAt": "2018-03-25T15:38:42.320Z"
}